{
  "_format": "hh-sol-artifact-1",
  "contractName": "OmniSBT",
  "sourceName": "contracts/OmniSBT.sol",
  "abi": [
    {
      "inputs": [
        {
          "internalType": "address",
          "name": "_lzEndpoint",
          "type": "address"
        },
        {
          "internalType": "uint16[]",
          "name": "remoteChainIds",
          "type": "uint16[]"
        },
        {
          "internalType": "bytes[]",
          "name": "remoteContracts",
          "type": "bytes[]"
        },
        {
          "internalType": "bool",
          "name": "_isSource",
          "type": "bool"
        }
      ],
      "stateMutability": "nonpayable",
      "type": "constructor"
    },
    {
      "inputs": [],
      "name": "ArrayMismatch",
      "type": "error"
    },
    {
      "inputs": [],
      "name": "NotZeroAddress",
      "type": "error"
    },
    {
      "inputs": [],
      "name": "OnlyCollectModule",
      "type": "error"
    },
    {
      "inputs": [],
      "name": "OnlyEndpoint",
      "type": "error"
    },
    {
      "inputs": [],
      "name": "OnlyTokenOwner",
      "type": "error"
    },
    {
      "inputs": [],
      "name": "OnlyTrustedRemote",
      "type": "error"
    },
    {
      "inputs": [],
      "name": "RemoteNotFound",
      "type": "error"
    },
    {
      "anonymous": false,
      "inputs": [
        {
          "indexed": true,
          "internalType": "address",
          "name": "to",
          "type": "address"
        },
        {
          "indexed": true,
          "internalType": "uint256",
          "name": "tokenId",
          "type": "uint256"
        }
      ],
      "name": "Attest",
      "type": "event"
    },
    {
      "anonymous": false,
      "inputs": [
        {
          "indexed": true,
          "internalType": "address",
          "name": "user",
          "type": "address"
        },
        {
          "indexed": true,
          "internalType": "address",
          "name": "newOwner",
          "type": "address"
        }
      ],
      "name": "OwnerUpdated",
      "type": "event"
    },
    {
      "anonymous": false,
      "inputs": [
        {
          "indexed": true,
          "internalType": "address",
          "name": "to",
          "type": "address"
        },
        {
          "indexed": true,
          "internalType": "uint256",
          "name": "tokenId",
          "type": "uint256"
        }
      ],
      "name": "Revoke",
      "type": "event"
    },
    {
      "inputs": [
        {
          "internalType": "address",
          "name": "owner",
          "type": "address"
        }
      ],
      "name": "balanceOf",
      "outputs": [
        {
          "internalType": "uint256",
          "name": "",
          "type": "uint256"
        }
      ],
      "stateMutability": "view",
      "type": "function"
    },
    {
      "inputs": [
        {
          "internalType": "uint256",
          "name": "tokenId",
          "type": "uint256"
        }
      ],
      "name": "burn",
      "outputs": [],
      "stateMutability": "nonpayable",
      "type": "function"
    },
    {
      "inputs": [],
      "name": "collectModule",
      "outputs": [
        {
          "internalType": "address",
          "name": "",
          "type": "address"
        }
      ],
      "stateMutability": "view",
      "type": "function"
    },
    {
      "inputs": [],
      "name": "collections",
      "outputs": [
        {
          "internalType": "uint256",
          "name": "",
          "type": "uint256"
        }
      ],
      "stateMutability": "view",
      "type": "function"
    },
    {
      "inputs": [
        {
          "internalType": "string",
          "name": "_uri",
          "type": "string"
        }
      ],
      "name": "createCollection",
      "outputs": [
        {
          "internalType": "uint256",
          "name": "",
          "type": "uint256"
        }
      ],
      "stateMutability": "nonpayable",
      "type": "function"
    },
    {
      "inputs": [
        {
          "internalType": "uint16",
          "name": "_srcChainId",
          "type": "uint16"
        },
        {
          "internalType": "bytes",
          "name": "_srcAddress",
          "type": "bytes"
        }
      ],
      "name": "forceResumeReceive",
      "outputs": [],
      "stateMutability": "nonpayable",
      "type": "function"
    },
    {
      "inputs": [
        {
          "internalType": "uint16",
          "name": "_version",
          "type": "uint16"
        },
        {
          "internalType": "uint16",
          "name": "_chainId",
          "type": "uint16"
        },
        {
          "internalType": "address",
          "name": "",
          "type": "address"
        },
        {
          "internalType": "uint256",
          "name": "_configType",
          "type": "uint256"
        }
      ],
      "name": "getConfig",
      "outputs": [
        {
          "internalType": "bytes",
          "name": "",
          "type": "bytes"
        }
      ],
      "stateMutability": "view",
      "type": "function"
    },
    {
      "inputs": [],
      "name": "lzEndpoint",
      "outputs": [
        {
          "internalType": "contract ILayerZeroEndpoint",
          "name": "",
          "type": "address"
        }
      ],
      "stateMutability": "view",
      "type": "function"
    },
    {
      "inputs": [
        {
          "internalType": "uint16",
          "name": "_srcChainId",
          "type": "uint16"
        },
        {
          "internalType": "bytes",
          "name": "_srcAddress",
          "type": "bytes"
        },
        {
          "internalType": "uint64",
          "name": "_nonce",
          "type": "uint64"
        },
        {
          "internalType": "bytes",
          "name": "_payload",
          "type": "bytes"
        }
      ],
      "name": "lzReceive",
      "outputs": [],
      "stateMutability": "nonpayable",
      "type": "function"
    },
    {
      "inputs": [
        {
          "internalType": "uint16",
          "name": "chainId",
          "type": "uint16"
        }
      ],
      "name": "lzRemoteLookup",
      "outputs": [
        {
          "internalType": "bytes",
          "name": "",
          "type": "bytes"
        }
      ],
      "stateMutability": "view",
      "type": "function"
    },
    {
      "inputs": [
        {
          "internalType": "address",
          "name": "collector",
          "type": "address"
        },
        {
          "internalType": "uint256",
          "name": "collectionId",
          "type": "uint256"
        },
        {
          "internalType": "uint16",
          "name": "chainId",
          "type": "uint16"
        }
      ],
      "name": "mint",
      "outputs": [
        {
          "internalType": "bool",
          "name": "",
          "type": "bool"
        }
      ],
      "stateMutability": "nonpayable",
      "type": "function"
    },
    {
      "inputs": [],
      "name": "name",
      "outputs": [
        {
          "internalType": "string",
          "name": "",
          "type": "string"
        }
      ],
      "stateMutability": "view",
      "type": "function"
    },
    {
      "inputs": [],
      "name": "owner",
      "outputs": [
        {
          "internalType": "address",
          "name": "",
          "type": "address"
        }
      ],
      "stateMutability": "view",
      "type": "function"
    },
    {
      "inputs": [
        {
          "internalType": "uint256",
          "name": "tokenId",
          "type": "uint256"
        }
      ],
      "name": "ownerOf",
      "outputs": [
        {
          "internalType": "address",
          "name": "owner",
          "type": "address"
        }
      ],
      "stateMutability": "view",
      "type": "function"
    },
    {
      "inputs": [
        {
          "internalType": "address",
          "name": "_collectModule",
          "type": "address"
        }
      ],
      "name": "setCollectModule",
      "outputs": [],
      "stateMutability": "nonpayable",
      "type": "function"
    },
    {
      "inputs": [
        {
          "internalType": "uint16",
          "name": "_version",
          "type": "uint16"
        },
        {
          "internalType": "uint16",
          "name": "_chainId",
          "type": "uint16"
        },
        {
          "internalType": "uint256",
          "name": "_configType",
          "type": "uint256"
        },
        {
          "internalType": "bytes",
          "name": "_config",
          "type": "bytes"
        }
      ],
      "name": "setConfig",
      "outputs": [],
      "stateMutability": "nonpayable",
      "type": "function"
    },
    {
      "inputs": [
        {
          "internalType": "address",
          "name": "newOwner",
          "type": "address"
        }
      ],
      "name": "setOwner",
      "outputs": [],
      "stateMutability": "nonpayable",
      "type": "function"
    },
    {
      "inputs": [
        {
          "internalType": "uint16",
          "name": "_version",
          "type": "uint16"
        }
      ],
      "name": "setReceiveVersion",
      "outputs": [],
      "stateMutability": "nonpayable",
      "type": "function"
    },
    {
      "inputs": [
        {
          "internalType": "uint16",
          "name": "_version",
          "type": "uint16"
        }
      ],
      "name": "setSendVersion",
      "outputs": [],
      "stateMutability": "nonpayable",
      "type": "function"
    },
    {
      "inputs": [
        {
          "internalType": "uint16",
          "name": "_srcChainId",
          "type": "uint16"
        },
        {
          "internalType": "bytes",
          "name": "_srcAddress",
          "type": "bytes"
        }
      ],
      "name": "setTrustedRemote",
      "outputs": [],
      "stateMutability": "nonpayable",
      "type": "function"
    },
    {
      "inputs": [
        {
          "internalType": "address",
          "name": "_zroPaymentAddress",
          "type": "address"
        }
      ],
      "name": "setZroPaymentAddress",
      "outputs": [],
      "stateMutability": "nonpayable",
      "type": "function"
    },
    {
      "inputs": [
        {
          "internalType": "bytes4",
          "name": "interfaceId",
          "type": "bytes4"
        }
      ],
      "name": "supportsInterface",
      "outputs": [
        {
          "internalType": "bool",
          "name": "",
          "type": "bool"
        }
      ],
      "stateMutability": "view",
      "type": "function"
    },
    {
      "inputs": [],
      "name": "symbol",
      "outputs": [
        {
          "internalType": "string",
          "name": "",
          "type": "string"
        }
      ],
      "stateMutability": "view",
      "type": "function"
    },
    {
      "inputs": [
        {
          "internalType": "uint256",
          "name": "",
          "type": "uint256"
        }
      ],
      "name": "tokenToCollectionId",
      "outputs": [
        {
          "internalType": "uint256",
          "name": "",
          "type": "uint256"
        }
      ],
      "stateMutability": "view",
      "type": "function"
    },
    {
      "inputs": [
        {
          "internalType": "uint256",
          "name": "tokenId",
          "type": "uint256"
        }
      ],
      "name": "tokenURI",
      "outputs": [
        {
          "internalType": "string",
          "name": "",
          "type": "string"
        }
      ],
      "stateMutability": "view",
      "type": "function"
    },
    {
      "inputs": [],
      "name": "zroPaymentAddress",
      "outputs": [
        {
          "internalType": "address",
          "name": "",
          "type": "address"
        }
      ],
      "stateMutability": "view",
      "type": "function"
    }
  ],
  "bytecode": "0x60a06040523480156200001157600080fd5b5060405162001f8b38038062001f8b83398101604081905262000034916200045f565b83338484826040518060400160405280601481526020017f4f6d6e6920536f756c626f756e6420546f6b656e0000000000000000000000008152506040518060400160405280600881526020016713d353924b54d09560c21b8152508160019080519060200190620000a892919062000218565b508051620000be90600290602084019062000218565b5050600580546001600160a01b0319166001600160a01b0384169081179091556040519091506000907f8292fce18fa69edf4db7b94ea2e58241df0ae57f97e0a6c9b29067028bf92d76908290a3506001600160a01b03841662000135576040516366385fa360e01b815260040160405180910390fd5b8051825114620001585760405163b7c1140d60e01b815260040160405180910390fd5b6001600160a01b038416608052815160005b81811015620001e6578281815181106200018857620001886200056c565b602002602001015160066000868481518110620001a957620001a96200056c565b602002602001015161ffff1661ffff1681526020019081526020016000209080519060200190620001dc92919062000218565b506001016200016a565b5050600880546001600160a01b03191690555050600c805460ff19169315159390931790925550620005bf9350505050565b828054620002269062000582565b90600052602060002090601f0160209004810192826200024a576000855562000295565b82601f106200026557805160ff191683800117855562000295565b8280016001018555821562000295579182015b828111156200029557825182559160200191906001019062000278565b50620002a3929150620002a7565b5090565b5b80821115620002a35760008155600101620002a8565b634e487b7160e01b600052604160045260246000fd5b604051601f8201601f191681016001600160401b0381118282101715620002ff57620002ff620002be565b604052919050565b60006001600160401b03821115620003235762000323620002be565b5060051b60200190565b6000601f83818401126200034057600080fd5b8251602062000359620003538362000307565b620002d4565b82815260059290921b850181019181810190878411156200037957600080fd5b8287015b848110156200043d5780516001600160401b03808211156200039f5760008081fd5b818a0191508a603f830112620003b55760008081fd5b8582015181811115620003cc57620003cc620002be565b620003df818a01601f19168801620002d4565b915080825260408c81838601011115620003f95760008081fd5b60005b8281101562000419578481018201518482018a01528801620003fc565b828111156200042b5760008984860101525b5050508452509183019183016200037d565b50979650505050505050565b805180151581146200045a57600080fd5b919050565b600080600080608085870312156200047657600080fd5b84516001600160a01b03811681146200048e57600080fd5b602086810151919550906001600160401b0380821115620004ae57600080fd5b818801915088601f830112620004c357600080fd5b8151620004d4620003538262000307565b81815260059190911b8301840190848101908b831115620004f457600080fd5b938501935b828510156200052657845161ffff81168114620005165760008081fd5b82529385019390850190620004f9565b60408b015190985094505050808311156200054057600080fd5b505062000550878288016200032d565b925050620005616060860162000449565b905092959194509250565b634e487b7160e01b600052603260045260246000fd5b600181811c908216806200059757607f821691505b60208210811415620005b957634e487b7160e01b600052602260045260246000fd5b50919050565b60805161197f6200060c6000396000818161032e015281816103d6015281816106860152818161072a0152818161096401528181610b3e01528181610d260152610ead015261197f6000f3fe608060405234801561001057600080fd5b506004361061018d5760003560e01c806370a08231116100de578063c87b56dd11610097578063e67c8c9711610071578063e67c8c971461037f578063eb8d72b714610392578063eda2fe7c146103a5578063f5ecbdbc146103b857600080fd5b8063c87b56dd14610350578063cbed8b9c14610363578063e562dfd61461037657600080fd5b806370a08231146102c8578063856925cc146102db5780638da5cb5b146102ee57806395d89b4114610301578063a86f1c4014610309578063b353aaa71461032957600080fd5b806313af40351161014b57806342d65a8d1161012557806342d65a8d1461026457806342fed70f146102775780636352211e146102a25780636b32628b146102b557600080fd5b806313af40351461022b5780633167611f1461023e57806342966c681461025157600080fd5b80621d35671461019257806301ffc9a7146101a7578063059dfe13146101cf57806306fdde03146101f057806307e0db171461020557806310ddb13714610218575b600080fd5b6101a56101a03660046112d5565b6103cb565b005b6101ba6101b5366004611363565b610502565b60405190151581526020015b60405180910390f35b6101e26101dd36600461138d565b610561565b6040519081526020016101c6565b6101f86105ac565b6040516101c69190611436565b6101a5610213366004611449565b61063a565b6101a5610226366004611449565b6106e7565b6101a561023936600461147c565b610761565b6101ba61024c366004611499565b6107d7565b6101a561025f3660046114d7565b6108d2565b6101a5610272366004611539565b610923565b60075461028a906001600160a01b031681565b6040516001600160a01b0390911681526020016101c6565b61028a6102b03660046114d7565b6109d4565b60085461028a906001600160a01b031681565b6101e26102d636600461147c565b610a26565b6101a56102e936600461147c565b610a89565b60055461028a906001600160a01b031681565b6101f8610ad5565b6101e26103173660046114d7565b600a6020526000908152604090205481565b61028a7f000000000000000000000000000000000000000000000000000000000000000081565b6101f861035e3660046114d7565b610ae2565b6101a561037136600461158c565b610afd565b6101e260095481565b6101a561038d36600461147c565b610bb4565b6101a56103a0366004611539565b610c00565b6101f86103b3366004611449565b610c4e565b6101f86103c63660046115fb565b610cf5565b336001600160a01b037f0000000000000000000000000000000000000000000000000000000000000000161461041457604051630fd72cd960e31b815260040160405180910390fd5b61ffff84166000908152600660205260408120805461043290611648565b80601f016020809104026020016040519081016040528092919081815260200182805461045e90611648565b80156104ab5780601f10610480576101008083540402835291602001916104ab565b820191906000526020600020905b81548152906001019060200180831161048e57829003601f168201915b50505050509050805184511415806104d157508080519060200120848051906020012014155b156104ef5760405163a83a91cf60e01b815260040160405180910390fd5b6104fb85858585610da6565b5050505050565b600c5460009060ff161561052757506001600160e01b0319166301ffc9a760e01b1490565b6301ffc9a760e01b6001600160e01b0319831614806105565750635b5e139f60e01b6001600160e01b03198316145b92915050565b919050565b6007546000906001600160a01b0316331461058f5760405163a675f51960e01b815260040160405180910390fd5b60098054600101908190556105a49083610e05565b505060095490565b600180546105b990611648565b80601f01602080910402602001604051908101604052809291908181526020018280546105e590611648565b80156106325780601f1061060757610100808354040283529160200191610632565b820191906000526020600020905b81548152906001019060200180831161061557829003601f168201915b505050505081565b6005546001600160a01b0316331461066d5760405162461bcd60e51b815260040161066490611683565b60405180910390fd5b6040516307e0db1760e01b815261ffff821660048201527f00000000000000000000000000000000000000000000000000000000000000006001600160a01b0316906307e0db17906024015b600060405180830381600087803b1580156106d357600080fd5b505af11580156104fb573d6000803e3d6000fd5b6005546001600160a01b031633146107115760405162461bcd60e51b815260040161066490611683565b6040516310ddb13760e01b815261ffff821660048201527f00000000000000000000000000000000000000000000000000000000000000006001600160a01b0316906310ddb137906024016106b9565b6005546001600160a01b0316331461078b5760405162461bcd60e51b815260040161066490611683565b600580546001600160a01b0319166001600160a01b03831690811790915560405133907f8292fce18fa69edf4db7b94ea2e58241df0ae57f97e0a6c9b29067028bf92d7690600090a350565b6007546000906001600160a01b031633146108055760405163a675f51960e01b815260040160405180910390fd5b6001600160a01b0384166000908152600d6020908152604080832086845290915290205460ff166108c7576001600160a01b0384166000908152600d602090815260408083208684529091529020805460ff19166001908117909155600b8054909101908190556108bf9083908690869061087f82610e27565b60405160200161089294939291906116a9565b60408051601f1981840301815260085460208401909252600083529188916001600160a01b031690610e44565b5060016108cb565b5060005b9392505050565b6000818152600360205260409020546001600160a01b031633146109095760405163cdf1f8f960e01b815260040160405180910390fd5b61091281610f26565b6000908152600a6020526040812055565b6005546001600160a01b0316331461094d5760405162461bcd60e51b815260040161066490611683565b6040516342d65a8d60e01b81526001600160a01b037f000000000000000000000000000000000000000000000000000000000000000016906342d65a8d9061099d90869086908690600401611709565b600060405180830381600087803b1580156109b757600080fd5b505af11580156109cb573d6000803e3d6000fd5b50505050505050565b6000818152600360205260409020546001600160a01b03168061055c5760405162461bcd60e51b815260206004820152600a6024820152691393d517d3525395115160b21b6044820152606401610664565b60006001600160a01b038216610a6d5760405162461bcd60e51b815260206004820152600c60248201526b5a45524f5f4144445245535360a01b6044820152606401610664565b506001600160a01b031660009081526004602052604090205490565b6005546001600160a01b03163314610ab35760405162461bcd60e51b815260040161066490611683565b600880546001600160a01b0319166001600160a01b0392909216919091179055565b600280546105b990611648565b6000818152600a602052604090205460609061055690610e27565b6005546001600160a01b03163314610b275760405162461bcd60e51b815260040161066490611683565b6040516332fb62e760e21b81526001600160a01b037f0000000000000000000000000000000000000000000000000000000000000000169063cbed8b9c90610b7b9088908890889088908890600401611727565b600060405180830381600087803b158015610b9557600080fd5b505af1158015610ba9573d6000803e3d6000fd5b505050505050505050565b6005546001600160a01b03163314610bde5760405162461bcd60e51b815260040161066490611683565b600780546001600160a01b0319166001600160a01b0392909216919091179055565b6005546001600160a01b03163314610c2a5760405162461bcd60e51b815260040161066490611683565b61ffff83166000908152600660205260409020610c489083836110e9565b50505050565b61ffff81166000908152600660205260409020805460609190610c7090611648565b80601f0160208091040260200160405190810160405280929190818152602001828054610c9c90611648565b8015610ce95780601f10610cbe57610100808354040283529160200191610ce9565b820191906000526020600020905b815481529060010190602001808311610ccc57829003601f168201915b50505050509050919050565b604051633d7b2f6f60e21b815261ffff808616600483015284166024820152306044820152606481018290526060907f00000000000000000000000000000000000000000000000000000000000000006001600160a01b03169063f5ecbdbc90608401600060405180830381865afa158015610d75573d6000803e3d6000fd5b505050506040513d6000823e601f3d908101601f19168201604052610d9d9190810190611790565b95945050505050565b60008060008084806020019051810190610dc091906117d9565b9350935093509350610dd28483610fe1565b6000828152600a60205260409020839055610dec83610e27565b51610dfb57610dfb8382610e05565b5050505050505050565b6000828152602081815260409091208251610e229284019061116d565b505050565b6000818152602081905260409020805460609190610c7090611648565b61ffff851660009081526006602052604090208054610e6290611648565b15159050610e835760405163324e8fc560e11b815260040160405180910390fd5b61ffff851660009081526006602052604090819020905162c5803160e81b81526001600160a01b037f0000000000000000000000000000000000000000000000000000000000000000169163c5803100913491610eed918a91908a908a908a908a90600401611846565b6000604051808303818588803b158015610f0657600080fd5b505af1158015610f1a573d6000803e3d6000fd5b50505050505050505050565b6000818152600360205260409020546001600160a01b031680610f785760405162461bcd60e51b815260206004820152600a6024820152691393d517d3525395115160b21b6044820152606401610664565b6001600160a01b03811660009081526004602090815260408083208054600019019055848352600390915280822080546001600160a01b0319169055518391907fec9ab91322523c899ede7830ec9bfc992b5981cdcc27b91162fb23de5791117b908290a35050565b6001600160a01b03821661102b5760405162461bcd60e51b81526020600482015260116024820152701253959053125117d49150d25412515395607a1b6044820152606401610664565b6000818152600360205260409020546001600160a01b0316156110815760405162461bcd60e51b815260206004820152600e60248201526d1053149150511657d3525395115160921b6044820152606401610664565b6001600160a01b038216600081815260046020908152604080832080546001019055848352600390915280822080546001600160a01b03191684179055518392917fe9274a84b19e9428826de6bae8c48329354f8f0e73f771b97cae2d9dccd45a2791a35050565b8280546110f590611648565b90600052602060002090601f016020900481019282611117576000855561115d565b82601f106111305782800160ff1982351617855561115d565b8280016001018555821561115d579182015b8281111561115d578235825591602001919060010190611142565b506111699291506111e1565b5090565b82805461117990611648565b90600052602060002090601f01602090048101928261119b576000855561115d565b82601f106111b457805160ff191683800117855561115d565b8280016001018555821561115d579182015b8281111561115d5782518255916020019190600101906111c6565b5b8082111561116957600081556001016111e2565b803561ffff8116811461055c57600080fd5b634e487b7160e01b600052604160045260246000fd5b604051601f8201601f1916810167ffffffffffffffff8111828210171561124757611247611208565b604052919050565b600067ffffffffffffffff82111561126957611269611208565b50601f01601f191660200190565b600061128a6112858461124f565b61121e565b905082815283838301111561129e57600080fd5b828260208301376000602084830101529392505050565b600082601f8301126112c657600080fd5b6108cb83833560208501611277565b600080600080608085870312156112eb57600080fd5b6112f4856111f6565b9350602085013567ffffffffffffffff8082111561131157600080fd5b61131d888389016112b5565b945060408701359150808216821461133457600080fd5b9092506060860135908082111561134a57600080fd5b50611357878288016112b5565b91505092959194509250565b60006020828403121561137557600080fd5b81356001600160e01b0319811681146108cb57600080fd5b60006020828403121561139f57600080fd5b813567ffffffffffffffff8111156113b657600080fd5b8201601f810184136113c757600080fd5b6113d684823560208401611277565b949350505050565b60005b838110156113f95781810151838201526020016113e1565b83811115610c485750506000910152565b600081518084526114228160208601602086016113de565b601f01601f19169290920160200192915050565b6020815260006108cb602083018461140a565b60006020828403121561145b57600080fd5b6108cb826111f6565b6001600160a01b038116811461147957600080fd5b50565b60006020828403121561148e57600080fd5b81356108cb81611464565b6000806000606084860312156114ae57600080fd5b83356114b981611464565b9250602084013591506114ce604085016111f6565b90509250925092565b6000602082840312156114e957600080fd5b5035919050565b60008083601f84011261150257600080fd5b50813567ffffffffffffffff81111561151a57600080fd5b60208301915083602082850101111561153257600080fd5b9250929050565b60008060006040848603121561154e57600080fd5b611557846111f6565b9250602084013567ffffffffffffffff81111561157357600080fd5b61157f868287016114f0565b9497909650939450505050565b6000806000806000608086880312156115a457600080fd5b6115ad866111f6565b94506115bb602087016111f6565b935060408601359250606086013567ffffffffffffffff8111156115de57600080fd5b6115ea888289016114f0565b969995985093965092949392505050565b6000806000806080858703121561161157600080fd5b61161a856111f6565b9350611628602086016111f6565b9250604085013561163881611464565b9396929550929360600135925050565b600181811c9082168061165c57607f821691505b6020821081141561167d57634e487b7160e01b600052602260045260246000fd5b50919050565b6020808252600c908201526b15539055551213d49256915160a21b604082015260600190565b60018060a01b03851681528360208201528260408201526080606082015260006116d6608083018461140a565b9695505050505050565b81835281816020850137506000828201602090810191909152601f909101601f19169091010190565b61ffff84168152604060208201526000610d9d6040830184866116e0565b600061ffff8088168352808716602084015250846040830152608060608301526117556080830184866116e0565b979650505050505050565b600061176e6112858461124f565b905082815283838301111561178257600080fd5b6108cb8360208301846113de565b6000602082840312156117a257600080fd5b815167ffffffffffffffff8111156117b957600080fd5b8201601f810184136117ca57600080fd5b6113d684825160208401611760565b600080600080608085870312156117ef57600080fd5b84516117fa81611464565b809450506020850151925060408501519150606085015167ffffffffffffffff81111561182657600080fd5b8501601f8101871361183757600080fd5b61135787825160208401611760565b61ffff871681526000602060c0818401526000885481600182811c91508083168061187257607f831692505b85831081141561189057634e487b7160e01b85526022600452602485fd5b60c0880183905260e088018180156118af57600181146118c0576118eb565b60ff198616825287820196506118eb565b60008f81526020902060005b868110156118e5578154848201529085019089016118cc565b83019750505b5050505050508381036040850152611903818961140a565b91505061191b60608401876001600160a01b03169052565b6001600160a01b038516608084015282810360a084015261193c818561140a565b999850505050505050505056fea264697066735822122074dbd2f9f3fa9d5645926bbad218d83444f1242dec621a7bdeba3d6346060fe064736f6c634300080a0033",
  "linkReferences": {},
  "deployedLinkReferences": {}
}