{
  "_format": "hh-sol-artifact-1",
  "contractName": "OmniSBT",
  "sourceName": "contracts/OmniSBT.sol",
  "abi": [
    {
      "inputs": [
        {
          "internalType": "address",
          "name": "_lzEndpoint",
          "type": "address"
        },
        {
          "internalType": "uint16[]",
          "name": "remoteChainIds",
          "type": "uint16[]"
        },
        {
          "internalType": "bytes[]",
          "name": "remoteContracts",
          "type": "bytes[]"
        },
        {
          "internalType": "bool",
          "name": "_isSource",
          "type": "bool"
        }
      ],
      "stateMutability": "nonpayable",
      "type": "constructor"
    },
    {
      "inputs": [],
      "name": "ArrayMismatch",
      "type": "error"
    },
    {
      "inputs": [],
      "name": "NotZeroAddress",
      "type": "error"
    },
    {
      "inputs": [],
      "name": "OnlyCollectModule",
      "type": "error"
    },
    {
      "inputs": [],
      "name": "OnlyEndpoint",
      "type": "error"
    },
    {
      "inputs": [],
      "name": "OnlyTokenOwner",
      "type": "error"
    },
    {
      "inputs": [],
      "name": "OnlyTrustedRemote",
      "type": "error"
    },
    {
      "inputs": [],
      "name": "RemoteNotFound",
      "type": "error"
    },
    {
      "anonymous": false,
      "inputs": [
        {
          "indexed": true,
          "internalType": "address",
          "name": "to",
          "type": "address"
        },
        {
          "indexed": true,
          "internalType": "uint256",
          "name": "tokenId",
          "type": "uint256"
        }
      ],
      "name": "Attest",
      "type": "event"
    },
    {
      "anonymous": false,
      "inputs": [
        {
          "indexed": true,
          "internalType": "address",
          "name": "user",
          "type": "address"
        },
        {
          "indexed": true,
          "internalType": "address",
          "name": "newOwner",
          "type": "address"
        }
      ],
      "name": "OwnerUpdated",
      "type": "event"
    },
    {
      "anonymous": false,
      "inputs": [
        {
          "indexed": true,
          "internalType": "address",
          "name": "to",
          "type": "address"
        },
        {
          "indexed": true,
          "internalType": "uint256",
          "name": "tokenId",
          "type": "uint256"
        }
      ],
      "name": "Revoke",
      "type": "event"
    },
    {
      "inputs": [
        {
          "internalType": "address",
          "name": "owner",
          "type": "address"
        }
      ],
      "name": "balanceOf",
      "outputs": [
        {
          "internalType": "uint256",
          "name": "",
          "type": "uint256"
        }
      ],
      "stateMutability": "view",
      "type": "function"
    },
    {
      "inputs": [
        {
          "internalType": "uint256",
          "name": "tokenId",
          "type": "uint256"
        }
      ],
      "name": "burn",
      "outputs": [],
      "stateMutability": "nonpayable",
      "type": "function"
    },
    {
      "inputs": [],
      "name": "collectModule",
      "outputs": [
        {
          "internalType": "address",
          "name": "",
          "type": "address"
        }
      ],
      "stateMutability": "view",
      "type": "function"
    },
    {
      "inputs": [],
      "name": "collections",
      "outputs": [
        {
          "internalType": "uint256",
          "name": "",
          "type": "uint256"
        }
      ],
      "stateMutability": "view",
      "type": "function"
    },
    {
      "inputs": [
        {
          "internalType": "string",
          "name": "_uri",
          "type": "string"
        }
      ],
      "name": "createCollection",
      "outputs": [
        {
          "internalType": "uint256",
          "name": "",
          "type": "uint256"
        }
      ],
      "stateMutability": "nonpayable",
      "type": "function"
    },
    {
      "inputs": [
        {
          "internalType": "uint16",
          "name": "_srcChainId",
          "type": "uint16"
        },
        {
          "internalType": "bytes",
          "name": "_srcAddress",
          "type": "bytes"
        }
      ],
      "name": "forceResumeReceive",
      "outputs": [],
      "stateMutability": "nonpayable",
      "type": "function"
    },
    {
      "inputs": [
        {
          "internalType": "uint16",
          "name": "_version",
          "type": "uint16"
        },
        {
          "internalType": "uint16",
          "name": "_chainId",
          "type": "uint16"
        },
        {
          "internalType": "address",
          "name": "",
          "type": "address"
        },
        {
          "internalType": "uint256",
          "name": "_configType",
          "type": "uint256"
        }
      ],
      "name": "getConfig",
      "outputs": [
        {
          "internalType": "bytes",
          "name": "",
          "type": "bytes"
        }
      ],
      "stateMutability": "view",
      "type": "function"
    },
    {
      "inputs": [],
      "name": "lzEndpoint",
      "outputs": [
        {
          "internalType": "contract ILayerZeroEndpoint",
          "name": "",
          "type": "address"
        }
      ],
      "stateMutability": "view",
      "type": "function"
    },
    {
      "inputs": [
        {
          "internalType": "uint16",
          "name": "_srcChainId",
          "type": "uint16"
        },
        {
          "internalType": "bytes",
          "name": "_srcAddress",
          "type": "bytes"
        },
        {
          "internalType": "uint64",
          "name": "_nonce",
          "type": "uint64"
        },
        {
          "internalType": "bytes",
          "name": "_payload",
          "type": "bytes"
        }
      ],
      "name": "lzReceive",
      "outputs": [],
      "stateMutability": "nonpayable",
      "type": "function"
    },
    {
      "inputs": [
        {
          "internalType": "uint16",
          "name": "chainId",
          "type": "uint16"
        }
      ],
      "name": "lzRemoteLookup",
      "outputs": [
        {
          "internalType": "bytes",
          "name": "",
          "type": "bytes"
        }
      ],
      "stateMutability": "view",
      "type": "function"
    },
    {
      "inputs": [
        {
          "internalType": "address",
          "name": "collector",
          "type": "address"
        },
        {
          "internalType": "uint256",
          "name": "collectionId",
          "type": "uint256"
        },
        {
          "internalType": "uint16",
          "name": "chainId",
          "type": "uint16"
        }
      ],
      "name": "mint",
      "outputs": [
        {
          "internalType": "bool",
          "name": "",
          "type": "bool"
        }
      ],
      "stateMutability": "payable",
      "type": "function"
    },
    {
      "inputs": [],
      "name": "name",
      "outputs": [
        {
          "internalType": "string",
          "name": "",
          "type": "string"
        }
      ],
      "stateMutability": "view",
      "type": "function"
    },
    {
      "inputs": [],
      "name": "owner",
      "outputs": [
        {
          "internalType": "address",
          "name": "",
          "type": "address"
        }
      ],
      "stateMutability": "view",
      "type": "function"
    },
    {
      "inputs": [
        {
          "internalType": "uint256",
          "name": "tokenId",
          "type": "uint256"
        }
      ],
      "name": "ownerOf",
      "outputs": [
        {
          "internalType": "address",
          "name": "owner",
          "type": "address"
        }
      ],
      "stateMutability": "view",
      "type": "function"
    },
    {
      "inputs": [
        {
          "internalType": "address",
          "name": "_collectModule",
          "type": "address"
        }
      ],
      "name": "setCollectModule",
      "outputs": [],
      "stateMutability": "nonpayable",
      "type": "function"
    },
    {
      "inputs": [
        {
          "internalType": "uint16",
          "name": "_version",
          "type": "uint16"
        },
        {
          "internalType": "uint16",
          "name": "_chainId",
          "type": "uint16"
        },
        {
          "internalType": "uint256",
          "name": "_configType",
          "type": "uint256"
        },
        {
          "internalType": "bytes",
          "name": "_config",
          "type": "bytes"
        }
      ],
      "name": "setConfig",
      "outputs": [],
      "stateMutability": "nonpayable",
      "type": "function"
    },
    {
      "inputs": [
        {
          "internalType": "address",
          "name": "newOwner",
          "type": "address"
        }
      ],
      "name": "setOwner",
      "outputs": [],
      "stateMutability": "nonpayable",
      "type": "function"
    },
    {
      "inputs": [
        {
          "internalType": "uint16",
          "name": "_version",
          "type": "uint16"
        }
      ],
      "name": "setReceiveVersion",
      "outputs": [],
      "stateMutability": "nonpayable",
      "type": "function"
    },
    {
      "inputs": [
        {
          "internalType": "uint16",
          "name": "_version",
          "type": "uint16"
        }
      ],
      "name": "setSendVersion",
      "outputs": [],
      "stateMutability": "nonpayable",
      "type": "function"
    },
    {
      "inputs": [
        {
          "internalType": "uint16",
          "name": "_srcChainId",
          "type": "uint16"
        },
        {
          "internalType": "bytes",
          "name": "_srcAddress",
          "type": "bytes"
        }
      ],
      "name": "setTrustedRemote",
      "outputs": [],
      "stateMutability": "nonpayable",
      "type": "function"
    },
    {
      "inputs": [
        {
          "internalType": "address",
          "name": "_zroPaymentAddress",
          "type": "address"
        }
      ],
      "name": "setZroPaymentAddress",
      "outputs": [],
      "stateMutability": "nonpayable",
      "type": "function"
    },
    {
      "inputs": [
        {
          "internalType": "bytes4",
          "name": "interfaceId",
          "type": "bytes4"
        }
      ],
      "name": "supportsInterface",
      "outputs": [
        {
          "internalType": "bool",
          "name": "",
          "type": "bool"
        }
      ],
      "stateMutability": "view",
      "type": "function"
    },
    {
      "inputs": [],
      "name": "symbol",
      "outputs": [
        {
          "internalType": "string",
          "name": "",
          "type": "string"
        }
      ],
      "stateMutability": "view",
      "type": "function"
    },
    {
      "inputs": [
        {
          "internalType": "uint256",
          "name": "",
          "type": "uint256"
        }
      ],
      "name": "tokenToCollectionId",
      "outputs": [
        {
          "internalType": "uint256",
          "name": "",
          "type": "uint256"
        }
      ],
      "stateMutability": "view",
      "type": "function"
    },
    {
      "inputs": [
        {
          "internalType": "uint256",
          "name": "tokenId",
          "type": "uint256"
        }
      ],
      "name": "tokenURI",
      "outputs": [
        {
          "internalType": "string",
          "name": "",
          "type": "string"
        }
      ],
      "stateMutability": "view",
      "type": "function"
    },
    {
      "inputs": [],
      "name": "zroPaymentAddress",
      "outputs": [
        {
          "internalType": "address",
          "name": "",
          "type": "address"
        }
      ],
      "stateMutability": "view",
      "type": "function"
    }
  ],
  "bytecode": "0x60a06040523480156200001157600080fd5b50604051620020c3380380620020c383398101604081905262000034916200045f565b83338484826040518060400160405280601481526020017f4f6d6e6920536f756c626f756e6420546f6b656e0000000000000000000000008152506040518060400160405280600881526020016713d353924b54d09560c21b8152508160019080519060200190620000a892919062000218565b508051620000be90600290602084019062000218565b5050600580546001600160a01b0319166001600160a01b0384169081179091556040519091506000907f8292fce18fa69edf4db7b94ea2e58241df0ae57f97e0a6c9b29067028bf92d76908290a3506001600160a01b03841662000135576040516366385fa360e01b815260040160405180910390fd5b8051825114620001585760405163b7c1140d60e01b815260040160405180910390fd5b6001600160a01b038416608052815160005b81811015620001e6578281815181106200018857620001886200056c565b602002602001015160066000868481518110620001a957620001a96200056c565b602002602001015161ffff1661ffff1681526020019081526020016000209080519060200190620001dc92919062000218565b506001016200016a565b5050600880546001600160a01b03191690555050600c805460ff19169315159390931790925550620005bf9350505050565b828054620002269062000582565b90600052602060002090601f0160209004810192826200024a576000855562000295565b82601f106200026557805160ff191683800117855562000295565b8280016001018555821562000295579182015b828111156200029557825182559160200191906001019062000278565b50620002a3929150620002a7565b5090565b5b80821115620002a35760008155600101620002a8565b634e487b7160e01b600052604160045260246000fd5b604051601f8201601f191681016001600160401b0381118282101715620002ff57620002ff620002be565b604052919050565b60006001600160401b03821115620003235762000323620002be565b5060051b60200190565b6000601f83818401126200034057600080fd5b8251602062000359620003538362000307565b620002d4565b82815260059290921b850181019181810190878411156200037957600080fd5b8287015b848110156200043d5780516001600160401b03808211156200039f5760008081fd5b818a0191508a603f830112620003b55760008081fd5b8582015181811115620003cc57620003cc620002be565b620003df818a01601f19168801620002d4565b915080825260408c81838601011115620003f95760008081fd5b60005b8281101562000419578481018201518482018a01528801620003fc565b828111156200042b5760008984860101525b5050508452509183019183016200037d565b50979650505050505050565b805180151581146200045a57600080fd5b919050565b600080600080608085870312156200047657600080fd5b84516001600160a01b03811681146200048e57600080fd5b602086810151919550906001600160401b0380821115620004ae57600080fd5b818801915088601f830112620004c357600080fd5b8151620004d4620003538262000307565b81815260059190911b8301840190848101908b831115620004f457600080fd5b938501935b828510156200052657845161ffff81168114620005165760008081fd5b82529385019390850190620004f9565b60408b015190985094505050808311156200054057600080fd5b505062000550878288016200032d565b925050620005616060860162000449565b905092959194509250565b634e487b7160e01b600052603260045260246000fd5b600181811c908216806200059757607f821691505b60208210811415620005b957634e487b7160e01b600052602260045260246000fd5b50919050565b608051611ab76200060c6000396000818161040b0152818161050e015281816107be0152818161086201528181610a9c01528181610c7601528181610e5e0152610fe50152611ab76000f3fe6080604052600436106101805760003560e01c806370a08231116100d1578063c87b56dd1161008a578063e67c8c9711610064578063e67c8c9714610483578063eb8d72b7146104a3578063eda2fe7c146104c3578063f5ecbdbc146104e357600080fd5b8063c87b56dd1461042d578063cbed8b9c1461044d578063e562dfd61461046d57600080fd5b806370a0823114610357578063856925cc146103775780638da5cb5b1461039757806395d89b41146103b7578063a86f1c40146103cc578063b353aaa7146103f957600080fd5b806313af40351161013e57806342d65a8d1161011857806342d65a8d146102bf57806342fed70f146102df5780636352211e146103175780636b32628b1461033757600080fd5b806313af40351461026c5780633167611f1461028c57806342966c681461029f57600080fd5b80621d35671461018557806301ffc9a7146101a7578063059dfe13146101dc57806306fdde031461020a57806307e0db171461022c57806310ddb1371461024c575b600080fd5b34801561019157600080fd5b506101a56101a036600461140d565b610503565b005b3480156101b357600080fd5b506101c76101c236600461149b565b61063a565b60405190151581526020015b60405180910390f35b3480156101e857600080fd5b506101fc6101f73660046114c5565b610699565b6040519081526020016101d3565b34801561021657600080fd5b5061021f6106e4565b6040516101d3919061156e565b34801561023857600080fd5b506101a5610247366004611581565b610772565b34801561025857600080fd5b506101a5610267366004611581565b61081f565b34801561027857600080fd5b506101a56102873660046115b4565b610899565b6101c761029a3660046115d1565b61090f565b3480156102ab57600080fd5b506101a56102ba36600461160f565b610a0a565b3480156102cb57600080fd5b506101a56102da366004611671565b610a5b565b3480156102eb57600080fd5b506007546102ff906001600160a01b031681565b6040516001600160a01b0390911681526020016101d3565b34801561032357600080fd5b506102ff61033236600461160f565b610b0c565b34801561034357600080fd5b506008546102ff906001600160a01b031681565b34801561036357600080fd5b506101fc6103723660046115b4565b610b5e565b34801561038357600080fd5b506101a56103923660046115b4565b610bc1565b3480156103a357600080fd5b506005546102ff906001600160a01b031681565b3480156103c357600080fd5b5061021f610c0d565b3480156103d857600080fd5b506101fc6103e736600461160f565b600a6020526000908152604090205481565b34801561040557600080fd5b506102ff7f000000000000000000000000000000000000000000000000000000000000000081565b34801561043957600080fd5b5061021f61044836600461160f565b610c1a565b34801561045957600080fd5b506101a56104683660046116c4565b610c35565b34801561047957600080fd5b506101fc60095481565b34801561048f57600080fd5b506101a561049e3660046115b4565b610cec565b3480156104af57600080fd5b506101a56104be366004611671565b610d38565b3480156104cf57600080fd5b5061021f6104de366004611581565b610d86565b3480156104ef57600080fd5b5061021f6104fe366004611733565b610e2d565b336001600160a01b037f0000000000000000000000000000000000000000000000000000000000000000161461054c57604051630fd72cd960e31b815260040160405180910390fd5b61ffff84166000908152600660205260408120805461056a90611780565b80601f016020809104026020016040519081016040528092919081815260200182805461059690611780565b80156105e35780601f106105b8576101008083540402835291602001916105e3565b820191906000526020600020905b8154815290600101906020018083116105c657829003601f168201915b505050505090508051845114158061060957508080519060200120848051906020012014155b156106275760405163a83a91cf60e01b815260040160405180910390fd5b61063385858585610ede565b5050505050565b600c5460009060ff161561065f57506001600160e01b0319166301ffc9a760e01b1490565b6301ffc9a760e01b6001600160e01b03198316148061068e5750635b5e139f60e01b6001600160e01b03198316145b92915050565b919050565b6007546000906001600160a01b031633146106c75760405163a675f51960e01b815260040160405180910390fd5b60098054600101908190556106dc9083610f3d565b505060095490565b600180546106f190611780565b80601f016020809104026020016040519081016040528092919081815260200182805461071d90611780565b801561076a5780601f1061073f5761010080835404028352916020019161076a565b820191906000526020600020905b81548152906001019060200180831161074d57829003601f168201915b505050505081565b6005546001600160a01b031633146107a55760405162461bcd60e51b815260040161079c906117bb565b60405180910390fd5b6040516307e0db1760e01b815261ffff821660048201527f00000000000000000000000000000000000000000000000000000000000000006001600160a01b0316906307e0db17906024015b600060405180830381600087803b15801561080b57600080fd5b505af1158015610633573d6000803e3d6000fd5b6005546001600160a01b031633146108495760405162461bcd60e51b815260040161079c906117bb565b6040516310ddb13760e01b815261ffff821660048201527f00000000000000000000000000000000000000000000000000000000000000006001600160a01b0316906310ddb137906024016107f1565b6005546001600160a01b031633146108c35760405162461bcd60e51b815260040161079c906117bb565b600580546001600160a01b0319166001600160a01b03831690811790915560405133907f8292fce18fa69edf4db7b94ea2e58241df0ae57f97e0a6c9b29067028bf92d7690600090a350565b6007546000906001600160a01b0316331461093d5760405163a675f51960e01b815260040160405180910390fd5b6001600160a01b0384166000908152600d6020908152604080832086845290915290205460ff166109ff576001600160a01b0384166000908152600d602090815260408083208684529091529020805460ff19166001908117909155600b8054909101908190556109f7908390869086906109b782610f5f565b6040516020016109ca94939291906117e1565b60408051601f1981840301815260085460208401909252600083529188916001600160a01b031690610f7c565b506001610a03565b5060005b9392505050565b6000818152600360205260409020546001600160a01b03163314610a415760405163cdf1f8f960e01b815260040160405180910390fd5b610a4a8161105e565b6000908152600a6020526040812055565b6005546001600160a01b03163314610a855760405162461bcd60e51b815260040161079c906117bb565b6040516342d65a8d60e01b81526001600160a01b037f000000000000000000000000000000000000000000000000000000000000000016906342d65a8d90610ad590869086908690600401611841565b600060405180830381600087803b158015610aef57600080fd5b505af1158015610b03573d6000803e3d6000fd5b50505050505050565b6000818152600360205260409020546001600160a01b0316806106945760405162461bcd60e51b815260206004820152600a6024820152691393d517d3525395115160b21b604482015260640161079c565b60006001600160a01b038216610ba55760405162461bcd60e51b815260206004820152600c60248201526b5a45524f5f4144445245535360a01b604482015260640161079c565b506001600160a01b031660009081526004602052604090205490565b6005546001600160a01b03163314610beb5760405162461bcd60e51b815260040161079c906117bb565b600880546001600160a01b0319166001600160a01b0392909216919091179055565b600280546106f190611780565b6000818152600a602052604090205460609061068e90610f5f565b6005546001600160a01b03163314610c5f5760405162461bcd60e51b815260040161079c906117bb565b6040516332fb62e760e21b81526001600160a01b037f0000000000000000000000000000000000000000000000000000000000000000169063cbed8b9c90610cb3908890889088908890889060040161185f565b600060405180830381600087803b158015610ccd57600080fd5b505af1158015610ce1573d6000803e3d6000fd5b505050505050505050565b6005546001600160a01b03163314610d165760405162461bcd60e51b815260040161079c906117bb565b600780546001600160a01b0319166001600160a01b0392909216919091179055565b6005546001600160a01b03163314610d625760405162461bcd60e51b815260040161079c906117bb565b61ffff83166000908152600660205260409020610d80908383611221565b50505050565b61ffff81166000908152600660205260409020805460609190610da890611780565b80601f0160208091040260200160405190810160405280929190818152602001828054610dd490611780565b8015610e215780601f10610df657610100808354040283529160200191610e21565b820191906000526020600020905b815481529060010190602001808311610e0457829003601f168201915b50505050509050919050565b604051633d7b2f6f60e21b815261ffff808616600483015284166024820152306044820152606481018290526060907f00000000000000000000000000000000000000000000000000000000000000006001600160a01b03169063f5ecbdbc90608401600060405180830381865afa158015610ead573d6000803e3d6000fd5b505050506040513d6000823e601f3d908101601f19168201604052610ed591908101906118c8565b95945050505050565b60008060008084806020019051810190610ef89190611911565b9350935093509350610f0a8483611119565b6000828152600a60205260409020839055610f2483610f5f565b51610f3357610f338382610f3d565b5050505050505050565b6000828152602081815260409091208251610f5a928401906112a5565b505050565b6000818152602081905260409020805460609190610da890611780565b61ffff851660009081526006602052604090208054610f9a90611780565b15159050610fbb5760405163324e8fc560e11b815260040160405180910390fd5b61ffff851660009081526006602052604090819020905162c5803160e81b81526001600160a01b037f0000000000000000000000000000000000000000000000000000000000000000169163c5803100913491611025918a91908a908a908a908a9060040161197e565b6000604051808303818588803b15801561103e57600080fd5b505af1158015611052573d6000803e3d6000fd5b50505050505050505050565b6000818152600360205260409020546001600160a01b0316806110b05760405162461bcd60e51b815260206004820152600a6024820152691393d517d3525395115160b21b604482015260640161079c565b6001600160a01b03811660009081526004602090815260408083208054600019019055848352600390915280822080546001600160a01b0319169055518391907fec9ab91322523c899ede7830ec9bfc992b5981cdcc27b91162fb23de5791117b908290a35050565b6001600160a01b0382166111635760405162461bcd60e51b81526020600482015260116024820152701253959053125117d49150d25412515395607a1b604482015260640161079c565b6000818152600360205260409020546001600160a01b0316156111b95760405162461bcd60e51b815260206004820152600e60248201526d1053149150511657d3525395115160921b604482015260640161079c565b6001600160a01b038216600081815260046020908152604080832080546001019055848352600390915280822080546001600160a01b03191684179055518392917fe9274a84b19e9428826de6bae8c48329354f8f0e73f771b97cae2d9dccd45a2791a35050565b82805461122d90611780565b90600052602060002090601f01602090048101928261124f5760008555611295565b82601f106112685782800160ff19823516178555611295565b82800160010185558215611295579182015b8281111561129557823582559160200191906001019061127a565b506112a1929150611319565b5090565b8280546112b190611780565b90600052602060002090601f0160209004810192826112d35760008555611295565b82601f106112ec57805160ff1916838001178555611295565b82800160010185558215611295579182015b828111156112955782518255916020019190600101906112fe565b5b808211156112a1576000815560010161131a565b803561ffff8116811461069457600080fd5b634e487b7160e01b600052604160045260246000fd5b604051601f8201601f1916810167ffffffffffffffff8111828210171561137f5761137f611340565b604052919050565b600067ffffffffffffffff8211156113a1576113a1611340565b50601f01601f191660200190565b60006113c26113bd84611387565b611356565b90508281528383830111156113d657600080fd5b828260208301376000602084830101529392505050565b600082601f8301126113fe57600080fd5b610a03838335602085016113af565b6000806000806080858703121561142357600080fd5b61142c8561132e565b9350602085013567ffffffffffffffff8082111561144957600080fd5b611455888389016113ed565b945060408701359150808216821461146c57600080fd5b9092506060860135908082111561148257600080fd5b5061148f878288016113ed565b91505092959194509250565b6000602082840312156114ad57600080fd5b81356001600160e01b031981168114610a0357600080fd5b6000602082840312156114d757600080fd5b813567ffffffffffffffff8111156114ee57600080fd5b8201601f810184136114ff57600080fd5b61150e848235602084016113af565b949350505050565b60005b83811015611531578181015183820152602001611519565b83811115610d805750506000910152565b6000815180845261155a816020860160208601611516565b601f01601f19169290920160200192915050565b602081526000610a036020830184611542565b60006020828403121561159357600080fd5b610a038261132e565b6001600160a01b03811681146115b157600080fd5b50565b6000602082840312156115c657600080fd5b8135610a038161159c565b6000806000606084860312156115e657600080fd5b83356115f18161159c565b9250602084013591506116066040850161132e565b90509250925092565b60006020828403121561162157600080fd5b5035919050565b60008083601f84011261163a57600080fd5b50813567ffffffffffffffff81111561165257600080fd5b60208301915083602082850101111561166a57600080fd5b9250929050565b60008060006040848603121561168657600080fd5b61168f8461132e565b9250602084013567ffffffffffffffff8111156116ab57600080fd5b6116b786828701611628565b9497909650939450505050565b6000806000806000608086880312156116dc57600080fd5b6116e58661132e565b94506116f36020870161132e565b935060408601359250606086013567ffffffffffffffff81111561171657600080fd5b61172288828901611628565b969995985093965092949392505050565b6000806000806080858703121561174957600080fd5b6117528561132e565b93506117606020860161132e565b925060408501356117708161159c565b9396929550929360600135925050565b600181811c9082168061179457607f821691505b602082108114156117b557634e487b7160e01b600052602260045260246000fd5b50919050565b6020808252600c908201526b15539055551213d49256915160a21b604082015260600190565b60018060a01b038516815283602082015282604082015260806060820152600061180e6080830184611542565b9695505050505050565b81835281816020850137506000828201602090810191909152601f909101601f19169091010190565b61ffff84168152604060208201526000610ed5604083018486611818565b600061ffff80881683528087166020840152508460408301526080606083015261188d608083018486611818565b979650505050505050565b60006118a66113bd84611387565b90508281528383830111156118ba57600080fd5b610a03836020830184611516565b6000602082840312156118da57600080fd5b815167ffffffffffffffff8111156118f157600080fd5b8201601f8101841361190257600080fd5b61150e84825160208401611898565b6000806000806080858703121561192757600080fd5b84516119328161159c565b809450506020850151925060408501519150606085015167ffffffffffffffff81111561195e57600080fd5b8501601f8101871361196f57600080fd5b61148f87825160208401611898565b61ffff871681526000602060c0818401526000885481600182811c9150808316806119aa57607f831692505b8583108114156119c857634e487b7160e01b85526022600452602485fd5b60c0880183905260e088018180156119e757600181146119f857611a23565b60ff19861682528782019650611a23565b60008f81526020902060005b86811015611a1d57815484820152908501908901611a04565b83019750505b5050505050508381036040850152611a3b8189611542565b915050611a5360608401876001600160a01b03169052565b6001600160a01b038516608084015282810360a0840152611a748185611542565b999850505050505050505056fea26469706673582212207317c5c64a0b10bf3510fc26085e3bfabdb88ca02f6c71e8aaba7d2383ae280264736f6c634300080a0033",
  "linkReferences": {},
  "deployedLinkReferences": {}
}